:020000040000FA
:10000000A86A00200102000015020000170200008B
:10001000190200001902000019020000000000008F
:1000200000000000000000000000000019020000B5
:10003000190200000000000019020000190200006F
:100040001902000019020000190200001902000044
:1000500019020000851900001902000019020000B1
:100060001902000019020000190200001902000024
:100070001902000019020000190200001902000014
:10008000190200008727000019020000AD170000C8
:10009000190200001902000019020000D317000025
:1000A00019020000190200001902000019020000E4
:1000B00019020000190200001902000019020000D4
:1000C000190200001902000019020000F7170000D1
:1000D00019020000190200001902000019020000B4
:1000E00019020000190200001902000019020000A4
:1000F0001902000019020000190200001902000094
:100100004917000019020000190200004B170000F7
:100110001902000019020000190200001902000073
:100120001902000019020000190200001902000063
:100130001902000019020000190200001B1800003B
:10014000190200003F180000190200001902000007
:100150000000000000000000190200001902000069
:10016000190200001902000000000000190200003E
:100170001902000019020000190200001902000013
:100180001902000019020000190200001902000003
:1001900019020000190200001902000019020000F3
:1001A00019020000190200001902000019020000E3
:1001B00019020000190200001902000019020000D3
:1001C0001902000019020000631800001902000063
:1001D00019020000190200001902000019020000B3
:1001E00019020000190200001902000019020000A3
:1001F0001902000019020000190200001902000093
:100200004EF68850CEF20000016841F470010160A2
:1002100000F004B8FEE7FEE7FEE7000000F002F899
:1002200000F05CF80AA090E8000C82448344AAF134
:100230000107DA4501D100F051F8AFF2090EBAE832
:100240000F0013F0010F18BFFB1A43F0010318470A
:10025000E4B7000004B800000A444FF0000C10F8A6
:10026000013B13F0070408BF10F8014B1D1108BF34
:1002700010F8015B641E05D010F8016B641E01F8D4
:10028000016BF9D113F0080F1EBF10F8014BAD1C24
:100290000C1B09D16D1E58BF01F801CBFAD505E042
:1002A00014F8016B01F8016B6D1EF9D59142D6D39C
:1002B000704700000023002400250026103A28BFC4
:1002C00078C1FBD8520728BF30C148BF0B607047C8
:1002D0001FB507F0FDFF1FBD10B510BD04F098F964
:1002E0001146FFF7F5FF00F060FB04F0B6F903B428
:1002F000FFF7F2FF03BC04F01BFA00004FF001010E
:10030000D0E84F2F002A08BFC0E8421F10467047B0
:100310000138FDD170470000EFF3108072B67047CE
:10032000EFF310807047EFF3108062B6704730BF74
:10033000704780F311887047EFF311807047000019
:1003400030B5039CFE4D2860FE4D2960FE4D2A60AD
:10035000FE4D2B60FE4D2C6030BD18B50446052CBB
:1003600034D2DFE804F0030D17212B0041F2941082
:1003700003468210114600901046FFF7E1FF25E08A
:1003800040F2654003468200114600901046FFF798
:10039000D7FF1BE041F29410034682100146009003
:1003A0001046FFF7CDFF11E041F294108310024692
:1003B000194600901846FFF7C3FF07E040F265407A
:1003C0008300024601460090FFF7BAFF00BF18BD48
:1003D0002DE9F04389B005460C4600200AE0411C97
:1003E00004EB810191ED000ADA4901EB800181ED16
:1003F000000A401CB0F5F97FF1DD9FEDD70AD74820
:1004000080EDF30A40F2F3100AE0411E04EB810193
:1004100091ED000AD24901EB800181ED000A401EF6
:100420000028F2DC9FEDCC0ACD4880ED000A4FF4A5
:10043000FA72CC49204603F0B7FA02AB4FF4FA72D5
:10044000C949C84803F002FB9FEDC30A8DED000ABD
:100450004FF4FA73C54ABF49204603F079FB4FF4C5
:10046000FA72C349C14803F09FFA6B464FF4FA721F
:10047000BD49BF4803F0EAFA01AA4FF4FA712046D9
:1004800003F06AFF00264FF4FA73BA4AB4492046D3
:1004900003F05EFB4FF4FA72B749B64803F084FAF2
:1004A00000200DE0B44901EB800191ED000ADFED81
:1004B000B30AB4EEE00AF1EE10FA00DB761C401C41
:1004C000B0F5FA7FEEDB0027002026E004EB800188
:1004D00091ED000AB1EE400A411C04EB8101D1ED1F
:1004E000000A20EE200AB5EEC00AF1EE10FA01DD96
:1004F000012100E000218946B9F1000F0CDD9E4981
:1005000001EB800191ED000ADFED9C0AB4EEE00AF8
:10051000F1EE10FA00DD7F1C401CB0F5F97FD5DD4F
:100520004FF00008002021E004EB800191ED000A6B
:10053000884901EB8001D1ED000A30EE600A04EB3E
:100540008001D1ED000A864901EB800191ED001A8E
:1005500070EEC10A20EE200ADFED880AB4EEE00A50
:10056000F1EE10FA01DD08F10108401CB0F5FA7F48
:10057000DADB9DED020A8DED030A9DED000A8DED9B
:10058000040A9DED010A8DED050A06960797CDF840
:1005900020809DED030A85ED000A9DED040A85ED9E
:1005A000010A9DED050A85ED020A0698E8600798A4
:1005B00028610898686109B0BDE8F08310B57048FB
:1005C00005F068FE6F4805F065FE012004F082FB2F
:1005D00040F2014004F07EFB03214FF0402004F084
:1005E000CAFB60234FF4165267480168674805F05C
:1005F000E4FE152004F0E8FF5021644805F016FFE2
:1006000010BD10B5624805F045FE2021614804F098
:10061000B6F802215F4804F026F900231A460221A9
:100620005C4804F0E7F8012300220221594804F055
:1006300029F9042301220221564804F023F96023FA
:1006400002221146534804F01DF90221514804F0DA
:1006500012F910BD10B5504805F01CFE4E48801C24
:1006600005F018FE4C48C01C05F014FE4A48001D59
:1006700005F010FE4848401D05F00CFE4648801D60
:1006800005F008FE2221454805F018FE22214448C5
:1006900005F014FE2221434805F010FE22214248B5
:1006A00005F00CFE2221414805F008FE22214048B9
:1006B00005F004FE3F4AFF21384805F062FE3D4A3E
:1006C000FF21374805F05DFE3A4AFF21354805F025
:1006D00058FE384AFF21344805F053FE354AFF21C1
:1006E000324805F04EFE344AFF21314805F049FEFC
:1006F000232004F069FF272004F066FF332004F074
:1007000063FF4F2004F060FF512004F05DFF722072
:1007100004F05AFF0121214805F02FFE0121204855
:1007200005F02BFE01211F4805F027FE01211E4880
:1007300005F023FE01211D4805F01FFE01213DE0CB
:10074000A4000020AC000020B4000020BC00002069
:10075000C40000204425002000000000442900209F
:10076000142D0020E4340020F45B0020B43C002071
:10077000544C002084440020245400208FC2753D36
:10078000000800F0001800F00800002000C0004041
:10079000013800F000900340000400F00000034026
:1007A000002003400030034000400340005003405D
:1007B00000000E40AF710B00BFD40100F94805F0F6
:1007C000DCFDFF21F84805F0CFFDFF21F74805F0DB
:1007D000CBFDFF21F64805F0C7FDFF21F54805F0E8
:1007E000C3FDFF21F44805F0BFFDFF21ED4805F0F2
:1007F000BBFD10BD10B5F14805F04CFDEF48C01C25
:1008000005F048FDEE4805F045FD40F20511ED48C4
:1008100005F0D6F8EC4804F05DFAEC4804F05AFA1A
:10082000EB4804F057FA4FF0061004F053FAE94889
:1008300004F050FA0221E84804F08FFA0421E64857
:1008400004F08BFA0821E44804F087FA0121E34818
:1008500004F083FA1021E24804F07FFA00224021DC
:10086000D84805F0B8F800228021D64805F0B3F842
:100870000022C021D34805F0AEF800224FF4807169
:10088000D04805F0A8F849F27B224021CD4805F078
:10089000BAF849F27B228021CA4805F0B4F849F23F
:1008A0007B22C021C74805F0AEF849F27B224FF405
:1008B0008071C44805F0A7F841F294124121C14863
:1008C00005F0B2F840F265428221BE4805F0ACF86E
:1008D00041F294128321BB4805F0A6F841F294122C
:1008E000C421B84805F0A0F841F294124FF4837186
:1008F000B44805F099F84021B24805F07FF880210E
:10090000B04805F07BF8C021AE4805F077F84FF409
:100910008071AC4805F072F801225E21A94805F00B
:100920007BF810BD10B5A548401E05F0B3FCA348E8
:10093000801C05F0AFFCA148001D05F0ABFC9F48F2
:10094000801D05F0A7FC0121A34804F0F8F901215E
:10095000A44804F0E6F90121A34804F0F0F90321CA
:10096000A24804F0ECF90A23012211469D4804F044
:1009700014F900220121984804F00BFA0022012109
:10098000994804F006FA00220321984804F001FA7D
:1009900004220121934804F0D8F80121914804F081
:1009A000C6F8432004F010FE10BD86B004F0A0F895
:1009B00004F096F88E498F4805F0FCFA8E490860DD
:1009C0000846006801F0C4FA8B48006801F081FF16
:1009D0008A4802F021F88A498A4805F066FD8A496A
:1009E000884805F062FD8949864805F05EFD884922
:1009F000844805F05AFD8749824805F056FD86492E
:100A0000804805F052FD85497E4805F04EFD844939
:100A10007C4805F04AFD0020009003460246012173
:100A20000190784805F056FD04F000FEFFF77AFFCC
:100A3000FFF7E0FEFFF70EFEFFF7E3FDFFF7BEFD59
:100A40004FF4FA717748B7EE000A03F017FD6C21F6
:100A5000754805F0A7FC4521734805F0A3FC6F21FC
:100A6000714805F09FFC44216F4805F09BFC002075
:100A70006E490870A3E305F09BFD6C4800780028E0
:100A8000F8D064226A496B4802F08EFF6A481D2341
:100A90006A4A64210090664803F0C4F864226849F9
:100AA000684802F081FF68481D23644A6421009071
:100AB000634803F0B7F8654A80215F4803F0D6FB2E
:100AC000634A8021604803F0D1FB62480078072820
:100AD00067D2DFE800F0660444E3FDFCFB005E48FB
:100AE000007810B1012838D11BE0584890ED000A79
:100AF000DFED5A0AB4EEE00AF1EE10FA10DD41F231
:100B0000941003468210114600901046FFF718FC1F
:100B100003221146354804F03CF901204E49087083
:100B20001BE04B4890ED000ADFED4C0AB4EEE00A02
:100B3000F1EE10FA10DD40F26540034682001146E6
:100B400000901046FFF7FCFB00220321274804F029
:100B500020F900204049087000BF00BF2BE33E4849
:100B6000007810B101281BD17AE0384890ED000AD6
:100B7000DFED3A0AB4EEE00AF1EE10FA10DD41F2D0
:100B8000941003468210014600901046FFF7D8FBF0
:100B900003221146154804F0FCF801202E49087084
:100BA0007AE0D6E200000E4000000340002003403F
:100BB000003003400040034000500340060800F0AE
:100BC000004000F000800240060405000608050011
:100BD000060C0500061009000050024000600240AB
:100BE0000010064000D003400020064000400640B0
:100BF000000E2707800600F108000020396700007A
:100C00000C010020340B0020CC0000208C050020BB
:100C1000DC0500202C0600207C060020CC060020ED
:100C20001C070020F45B002000C0004004000020EE
:100C3000840E0020640B0020A4110020300000204E
:100C400014100020F40C0020A41300201C0000202D
:100C5000200000202400002000000020E17A143E43
:100C6000FB4890ED000A5FED030AB4EEE00AF1EEF6
:100C700010FA10DD40F265400346820011460090F4
:100C80001046FFF75DFB00220321F24804F081F8D3
:100C90000020F149087000BF00BF8CE2EE480078E8
:100CA00010B101283CD11FE0EC4890ED000A5FED47
:100CB000150AB4EEE00AF1EE10FA14DD41F29410D8
:100CC0000346024601460090801002E094E169E08C
:100CD00028E0FFF735FB03221146DE4804F059F8FF
:100CE0000120DD4908701BE0D94890ED000A5FED56
:100CF000250AB4EEE00AF1EE10FA10DD40F265408C
:100D000003468200114600901046FFF719FB0022AF
:100D10000321D04804F03DF80020CF49087000BFFF
:100D200000BF48E2CC48007810B1012838D11BE060
:100D3000CA4890ED000AF4EE000AB4EEE00AF1EEC3
:100D400010FA10DD41F2941083100246194600900B
:100D50001846FFF7F5FA03221146BE4804F019F8C9
:100D60000120BD4908701BE0B94890ED000A5FED15
:100D7000450AB4EEE00AF1EE10FA10DD40F26540EB
:100D800003468200114600901046FFF7D9FA002270
:100D90000321B04803F0FDFF0020AF49087000BFF9
:100DA00000BF08E2AD4890ED000ADFEDAD0AB4EEF9
:100DB000E00AF1EE10FA09DCA54890ED000ADFED3B
:100DC000A80AB4EEE00AF1EE10FA7DDD0322114626
:100DD000A04803F0DEFFA348007898BBA248008833
:100DE000401CA149088040F2F31016E0411E9F4AC2
:100DF00002EB810191ED000A114601EB800181EDCA
:100E0000000A411E9A4A02EB810191ED000A114647
:100E100001EB800181ED000A401E0028E6DC9548C8
:100E200090ED000A914880ED000A934890ED000A89
:100E30008F4880ED000A8C480088B0F5C87F02DB3F
:100E4000012001E003E0002086490870D3E0002083
:100E5000854908808349087084496846FFF7B8FAD5
:100E600018226946854803F072FB81496846FFF7FE
:100E7000AFFA18226946824803F069FB7F4890ED7B
:100E8000000A804880ED000A7C4890ED010A7D4808
:100E900080ED010A794890ED020A7A4880ED020A55
:100EA000764890ED030AB8EEC00A764880ED030A52
:100EB000724890ED040AB8EEC00A724880ED040A48
:100EC0006E4890ED050A00E090E0B8EEC00A6D486B
:100ED00080ED050A6A4890ED000A6A4880ED060A2E
:100EE000674890ED010A674880ED070A644890ED75
:100EF000020A644880ED080A614890ED030AB8EEE2
:100F0000C00A604880ED090A5D4890ED040AB8EE19
:100F1000C00A5C4880ED0A0A594890ED050AB8EE0F
:100F2000C00A584880ED0B0A574902F0F5F9574BB3
:100F3000574A0521544803F02DF954480068FFF73B
:100F40000CFA514890ED000ADFED520A20EE200A1B
:100F5000BDEEC00A10EE102A4FA1504801F0E0FE8D
:100F6000494890ED010ADFED4B0A20EE200ABDEE64
:100F7000C00A10EE102A48A1494801F0D1FE4248AB
:100F800090ED020ADFED430A20EE200ABDEEC00A12
:100F900010EE102A40A1434801F0C2FE3A4890EDFD
:100FA000030ADFED3C0A20EE200ABDEEC00A10EE77
:100FB000102A39A13C4801F0B3FE334890ED040AF1
:100FC000DFED340A20EE200ABDEEC00A10EE102A32
:100FD00031A1364801F0A4FE0020009003460246ED
:100FE00001210190324805F075FA04E00022032146
:100FF000184803F0CEFEDEE0184890ED000A5FEDE1
:10100000E90AB4EEE00AF1EE10FA09DC104890EDBE
:10101000000A5FEDEE0AB4EEE00AF1EE10FA73DDBD
:10102000032211460B4803F0B4FE2248007806283C
:1010300076D2DFE800F003414B555F6B41F294102C
:1010400003468210114600901046FFF779F971E0CF
:101050002000002000400640000000201C0000206E
:10106000713D0A3E0500002006000020A415002066
:10107000741D00200C0000201000002034640020AB
:101080004C64002078640020646400202C00002060
:10109000280000200000C84225336400D4630020EB
:1010A000E4630020F4630020046400201464002042
:1010B000340B00200200002041F2941003468210FD
:1010C000014600901046FFF73BF933E041F29410DF
:1010D00003460246014600908010FFF731F929E0EF
:1010E00041F2941083100246194600901846FFF70B
:1010F00027F91FE041F29410831002460146009048
:101100001846FFF71DF915E015E009E040F26540CB
:1011100003468200114600901046FFF711F909E0DE
:1011200041F2941003468210114600901046FFF7DA
:1011300007F900BF0CE040F265400346820011460B
:101140000090FFF7FDF800220321FE4803F021FE86
:1011500031E0FD4890ED000ADFEDFC0AB4EEE00A54
:10116000F1EE10FA09DCFA4890ED000ADFEDF70A1B
:10117000B4EEE00AF1EE10FA0EDD41F294100346EF
:101180008210114600901046FFF7DAF8032211464C
:10119000EC4803F0FEFD0DE040F26540034682009E
:1011A000114600901046FFF7CBF800220321E548D6
:1011B00003F0EFFD00BF00BF0020E64908705AE4CD
:1011C0000121E54A117070470221E34A117070470E
:1011D0000321E14A117070470421DF4A1170704702
:1011E0001CB504460520DC490870DC4805F0B4FA5B
:1011F000DB4805F0B1FADB4805F0AEFADA4805F055
:10120000ABFADA4805F0A8FAD94805F0A5FAD948AA
:1012100005F0A2FAD84805F09FFAD849D84805F059
:1012200044F9D849D64805F040F9D749D44805F0E3
:101230003CF9D649D24805F038F9D549D04805F0EF
:1012400034F9D449CE4805F030F9D349CC4805F0FB
:101250002CF9D249CA4805F028F9D149C84805F007
:1012600024F9D049C64805F020F9CF49C44805F013
:101270001CF9CE49C24805F018F9CD49C04805F01F
:1012800014F9CC49BE4805F010F90020009003463F
:10129000024601210190BA4805F01CF91CBD1CB59D
:1012A00004460620AC490870AC4805F055FAAC4835
:1012B00005F052FAAB4805F04FFAAB4805F04CFA8E
:1012C000AA4805F049FAAA4805F046FAA94805F0E7
:1012D00043FAA94805F040FAB749A94805F0E5F8EE
:1012E000B649A74805F0E1F8B549A54805F0DDF88D
:1012F000AF49A34805F0D9F8B249A14805F0D5F89F
:10130000B1499F4805F0D1F8B0499D4805F0CDF8A6
:10131000002000900346024601210190984805F004
:10132000D9F81CBD1CB5044601208B4908709348B0
:1013300005F012FA934805F00FFA934805F00CFAFD
:10134000924805F009FA924805F006FA914805F02E
:1013500003FA914805F000FA904805F0FDF990482D
:1013600005F0FAF98F4805F0F7F98F4805F0F4F920
:101370008E4805F0F1F9904805F0EEF98F4805F038
:10138000EBF98F4805F0E8F9894805F0E5F9894857
:1013900005F0E2F98B4805F0DFF98B4805F0DCF940
:1013A0008A4805F0D9F96D49754805F07EF86C4911
:1013B000734805F07AF86B49714805F076F86A4988
:1013C0006F4805F072F869496D4805F06EF8684994
:1013D0006B4805F06AF86749694805F066F86649A0
:1013E000674805F062F8002000900346024601219C
:1013F0000190634805F06EF81CBD1CB5044608203A
:10140000554908705D4805F0A7F95E4805F0A4F954
:101410005D4805F0A1F95D4805F09EF95C4805F0CE
:101420009BF95C4805F098F95B4805F095F95B4835
:1014300005F092F95A4805F08FF95A4805F08CF9F1
:10144000594805F089F9594805F086F9584805F0DA
:1014500083F9584805F080F95D49494805F025F8B9
:101460005C49474805F021F85B49454805F01DF8FF
:101470005A49434805F019F85949414805F015F80B
:1014800058493F4805F011F857493D4805F00DF817
:1014900056493B4805F009F80020009003460246F3
:1014A00001210190364805F015F81CBD09212A4A92
:1014B000117070470A21284A117070470B21264A83
:1014C000117070470C21244A117070470D21224A77
:1014D000117070471CB5044605201F4908703C4830
:1014E00005F03AF93B4805F037F93B4805F034F987
:1014F0003A4805F031F93A4805F02EF9394805F037
:101500002BF9394805F028F9384805F025F91B4929
:101510001B4804F0CAFF1B49194804F0C6FF1A49CA
:10152000174804F0C2FF1949154804F0BEFF1849D6
:10153000134804F0BAFF1749114804F0B6FF1649E2
:101540000F4855E0004006401C000020E17A143EA0
:101550002000002004000020240000200C010020B6
:10156000CC0000208C050020DC0500202C0600208B
:101570007C060020CC0600201C0700200C04002064
:10158000340B00204C0100208C010020CC010020F5
:101590000C0200204C020020CC0200200C03002092
:1015A0004C0300208C0300208C020020CC03002080
:1015B0006C070020BC070020CC0400204C04002055
:1015C0008C040020EC0900203C0A00208C0A00203A
:1015D0004C0500200C0500200C0800205C080020B1
:1015E000AC080020FC0800204C0900209C090020C9
:1015F00004F05BFFF749F84804F057FFF749F64855
:1016000004F053FFF649F44804F04FFFF549F2485F
:1016100004F04BFFF449F04804F047FFF349EE486B
:1016200004F043FFF249EC4804F03FFF0020009033
:101630000346024601210190E74804F04BFF1CBD20
:1016400010B504460620EB4908706C21EA4804F006
:10165000A9FE4121E84804F0A5FE10BD10B50446DE
:101660000620E44908706C21E34804F09BFE452104
:10167000E14804F097FE10BD10B504460620DD4990
:1016800008706C21DC4804F08DFE4321DA4804F038
:1016900089FE10BD10B5014600BFEFF310831A4656
:1016A00072B6884201D9A1F10F00884201D201F13E
:1016B0000F00884200D1084600BF82F3108800BFA7
:1016C00010BD2DE9F04104460025204602F020FF20
:1016D000461E05E0675DA05D6055A7556D1C761E32
:1016E000B542F7DBBDE8F0812DE9F04104460D4637
:1016F000271E00DA6442002600BF0A20B4FBF0F186
:1017000000FB114030303146761C68540A20B4FB8F
:10171000F0F0041EF1D1002F03DA2D223046761CA2
:101720002A540020A8552846FFF7CBFFBDE8F081DA
:1017300010B5044604E02178AF4804F033FE641C81
:1017400020780028F7D110BD704710B50021AB48B4
:1017500003F0F4F900F0010038B30121A74803F0C9
:10176000DDFAF0B16921A44804F01CFE4421A2482E
:1017700004F018FE01221146A14803F00AFB0122E1
:101780001146A04803F005FB9F48FEF7C1FD00226B
:1017900001219B4803F0FDFA00220121994803F042
:1017A000F8FA0121954803F0BFF910BD10B50121E9
:1017B000964804F0E0FD96480068FFF76BFF9549F6
:1017C000086008464FF483710268934804F02CF9CE
:1017D00010BD10B50121914804F0CDFD904800687E
:1017E000FFF758FF8F4908600846C42102688A48FD
:1017F00004F01AF910BD10B501218B4804F0BBFDAF
:101800008A480068FFF746FF894908600846822138
:101810000268814804F008F910BD10B5012185481F
:1018200004F0A9FD84480068FFF734FF834908608D
:10183000084641210268784804F0F6F810BD10B55A
:1018400001217F4804F097FD7E480068FFF722FFE2
:101850007D4908600846832102686F4804F0E4F877
:1018600010BD10B50121794804F085FD02217848AA
:1018700002F08CFF0221764802F0AFFF00BF002289
:101880000221734802F08FFF0028F8D0714A02212C
:101890006F4802F0D6FF6F4840686E498968401A69
:1018A00000EE100AB8EEC00ADFED6B0A20EE200A47
:1018B000DFED6A0A80EE201A694880ED001A65485B
:1018C000006864498968401A00EE100AB8EEC00A40
:1018D000DFED610A20EE200ADFED600A80EE201ABB
:1018E000604880ED001A00BFEFF31080044672B626
:1018F000632016E0411E5C4A02EB810191ED000A73
:10190000114601EB800181ED000A411E574A02EBAE
:10191000810191ED000A114601EB800181ED000A81
:10192000401E0028E6DC4E4890ED000A4E4880ED4F
:10193000000A4C4890ED000A4C4880ED000A6320F4
:1019400016E0411E484A02EB810191ED000A484928
:1019500001EB800181ED000A411E444A02EB810146
:1019600091ED000A434901EB800181ED000A401E20
:101970000028E6DC00BF84F3108800BF01203E4948
:10198000087010BD1CB501211B4804F053FD04462E
:101990002146194804F048FD04E0174804F0FAFC19
:1019A00036490870144804F003FD0028F5D1344886
:1019B000007810B101280CD1B6E0304800787328C7
:1019C00060D120210C4804F0EDFC01202C49087066
:1019D000A9E00DE10C030020340B00204C03002093
:1019E0008C0300208C020020CC0300206C07002018
:1019F000BC0700202400002000C0004000D00340AD
:101A0000005002400020064020A1070000000340D3
:101A1000A4000020A8000020008002400020034015
:101A2000AC000020B000002000300340B4000020D3
:101A3000B800002000400340BC000020C00000208F
:101A400000500340C4000020C800002000000E40E9
:101A500000900340580B00203333534000F07F4583
:101A60000C00002010000020640B0020F40C00206B
:101A7000A4150020741D0020040000200100002097
:101A8000030000205B480078742815D100205A49D3
:101A900008705A480078062845D159A25BA15C48D5
:101AA00001F03EF90020009003460246012101901A
:101AB000584804F00FFD36E04E480078652815D1EF
:101AC00000204D4908704D48007806282BD152A2BD
:101AD0004EA14F4801F024F9002000900346024631
:101AE000012101904B4804F0F5FC1CE041480078CE
:101AF0006F2815D10020404908704048007806281A
:101B000011D147A241A1424801F00AF900200090FA
:101B100003460246012101903E4804F0DBFC02E04E
:101B200000203549087063E03448007806285CD10D
:101B30003048007841383C490870084600780B2846
:101B400049D2DFE800F0060C12181E242A30363C79
:101B5000420036A22DA12E4801F0E2F83BE035A26A
:101B60002AA12B4801F0DCF835E034A227A128484F
:101B700001F0D6F82FE033A224A1254801F0D0F8D7
:101B800029E032A221A1224801F0CAF823E031A2C3
:101B90001EA11F4801F0C4F81DE030A21BA11C4883
:101BA00001F0BEF817E02FA218A1194801F0B8F80B
:101BB00011E02EA215A1164801F0B2F80BE02DA2FB
:101BC00012A1134801F0ACF805E02CA20FA11048B7
:101BD00001F0A6F800BF00BF0020009003460246B7
:101BE000012101900B4804F075FC002002490870A7
:101BF00000BF1CBD010000200300002024000020C5
:101C00002274696D656F75742200000025730000F1
:101C100024640020340B0020226572726F7222004F
:101C2000226F6B220000000002000020227A657201
:101C30006F220000226F6E65220000002274776F11
:101C400022000000227468726565220022666F75AA
:101C5000722200002266697665220000227369788C
:101C60002200000022736576656E22002265696796
:101C700068742200226E696E652200002274656E0F
:101C8000220000000020FE4988600120FD494860D4
:101C900070470220FA4988600020FA49486070477E
:101CA00010B504466013F8490861E0120862E012BA
:101CB000F64908612013F449486020128000F44975
:101CC000086020124001F349C1F800022012F249D5
:101CD0008860201248600320FEF71AFB0020E949C3
:101CE00008640320FEF714FB0020EB49086403207E
:101CF000FEF70EFBFF20E84908640320FEF708FB0F
:101D00006011E1490861E0100862E010DF490861F4
:101D10002011DD494860A000DD4908606001DD490F
:101D2000C1F80002DC48846044600320FEF7F0FA4A
:101D30000020D94908640320FEF7EAFAFF20D649BB
:101D400008640320FEF7E4FAFF20CE49086403206C
:101D5000FEF7DEFA10BD10B504460020CA4908613E
:101D60000862CA490861C8494860C9490860C94948
:101D7000C1F80002C849886048600320FEF7C8FA2D
:101D80000020C04908640320FEF7C2FA0020BD49C4
:101D900080310860C04908640320FEF7B9FAFF20CB
:101DA000B84980310860BC4908640320FEF7B0FAE6
:101DB0006011B5490861E0100862E010B34908619C
:101DC0002011B1494860A000B14908606001B149E3
:101DD000C1F80002B048846044600320FEF798FA1E
:101DE0000020A84980310860AB4908640320FEF751
:101DF0008FFAFF20A34980310860A74908640320B7
:101E0000FEF786FAFF209F4908640320FEF780FA58
:101E100010BD10B50446A14804F030FA9F48C01C1C
:101E200004F02CFA9D480E3004F028FA9B48093043
:101E300004F024FA99480B3004F020FA97480D304A
:101E400004F01CFA95480C3004F018FA04218F486D
:101E500002F075FF0D218C4802F071FF20218C48A3
:101E6000803802F06CFF80218A4802F068FF03216D
:101E7000894802F064FF082377220421834802F096
:101E80008CFE082377220D217F4802F086FE08236E
:101E9000772220217E48803802F07FFE08237722B7
:101EA00080217C4802F079FE0823772203217A48BA
:101EB00002F073FE2021734802F041FF08217648AA
:101EC00002F03DFF1021744802F039FF10216D48E7
:101ED00002F035FF02216A4802F031FF102211465C
:101EE000684802F056FF00220421684802F051FFC2
:101EF00000220D21644802F04CFF0022202164489A
:101F0000803802F046FF00228021624802F041FF43
:101F100000220321604802F03CFF002220215948A2
:101F200002F037FF082211465B4802F032FF102210
:101F30001146594802F02DFF00221021514802F0AD
:101F400028FF2046FEF7E4F92046FEF7E1F910BD30
:101F500070B5044640F6B830B4FBF0F54F48C01CED
:101F600004F098F94D480E3004F094F94B480930CC
:101F700004F090F949480B3004F08CF947480D30D3
:101F800004F088F945480C3004F084F943480D30DA
:101F900004F080F941480D3004F07CF93F480C30E2
:101FA00004F078F93D48801D04F074F92846FFF7E5
:101FB00030FF10203A4909688847012039490968EB
:101FC00088471E20364909688847BA20354909687C
:101FD000884728203249096888470620314909681E
:101FE000884700202E490968884701202D49096843
:101FF000884701202A490968884743F2EF002949A8
:102000000968884702202649096888474FF4C0605C
:102010002449096888471020214909688847002019
:10202000204909688847C5EB05114800FEF770F99B
:1020300011201B490968884746F63000194909688C
:1020400088470720164909688847332015490968D9
:1020500088470C20124909688847052011490968FA
:10206000884730200E490968884700200D490968D3
:10207000884731200A49096888474FF4806013E097
:1020800000E00540004006400060064000B005400A
:10209000801006400030064000500640000800F066
:1020A000E00A0020DC0A0020FE4909688847322047
:1020B000FD49096888474FF48370FA4909688847E1
:1020C0003320F949096888474FF4E060F549096809
:1020D00088473420F449096888470220F149096893
:1020E00088473520F0490968884740F20270ED4979
:1020F000096888473620EC490968884740F207702C
:10210000E849096888473720E7490968884740F265
:102110000320E449096888473A20E3490968884769
:102120004FF4A050DF49096888473B20DE49096821
:10213000884740F60370DB49096888470D20DA4973
:10214000096888470720D749096888470E20D6497B
:10215000096888474FF44450D249096888474420A9
:10216000D149096888474FF46F40CE4909688847CC
:102170004520CD49096888470020CA490968884731
:102180004620C9490968884740F23F10C549096897
:1021900088474E20C449096888470020C14909681A
:1021A00088474F20C049096888470020BD49096811
:1021B00088472220BC4909688847002604E000209F
:1021C000B84909688847761CB6F5963FF7D370BDC5
:1021D0002DE9F04107460C4615461E464E20B249F1
:1021E0000968884740F23F11091B88B2AD49096868
:1021F00088474F20AC4909688847C5F1EF0188B28C
:10220000A849096888472220A74909688847B0B2C9
:10221000A44909688847BDE8F0812DE9F05F894647
:1022200092461F46DDE90C680A9D11209E49096807
:1022300088474FF4D0409B49096888474E209A4907
:102240000968884740F23F11A1EB090188B295491E
:10225000096888474F20944909688847CAF1EF0107
:1022600088B290490968884722208F4909688847C1
:102270000B98C0B2012806D004281ED008285AD0D6
:10228000102819D173E015E016F8014B0DE0C7F1E5
:10229000070124FA01F101F0010138F8211088B298
:1022A0008049096888477F1C6D1E082F01DA002DC0
:1022B000EDD10027002DE7D166E007F0010010B155
:1022C000012836D119E031E03078001100EB4004EC
:1022D00058F8040020F07F4404F47801090A04F45B
:1022E0007C4241EA5211C4F3C40241EA02006D4942
:1022F000096888476D1ECDB100BF16F8011B01F0BB
:102300000F0000EB400458F8040020F07F4404F470
:102310007801090A04F47C4241EA5211C4F3C40270
:1023200041EA02005F49096888476D1E002DCBD144
:1023300000BF00BF28E015E016F8011B01EB4104C7
:1023400058F8040020F07F4404F47801090A04F4EA
:102350007C4241EA5211C4F3C40241EA02005149ED
:1023600009688847281EA5F10105E5D10CE006E0C3
:10237000B6F800B0B61C58464A4909688847281E76
:10238000A5F10105F4D100BF00BFBDE8F09F2DE924
:10239000F04180460C4615461E46069F11204249D4
:1023A000096888474FF4D0403E49096888474E2065
:1023B0003D490968884740F23F11091B88B23949F5
:1023C000096888474F20384909688847C6F1EF01F6
:1023D00088B2344909688847222033490968884708
:1023E00003E0B8B22F49096888472046641CA84218
:1023F000F7DDBDE8F0812DE9F04180460D46144639
:102400001E46069F112028490968884746F608009D
:102410002449096888474E2023490968884740F2C3
:102420003F11491B88B21F49096888474F201E4940
:1024300009688847C4F1EF0188B21A4909688847DA
:10244000222019490968884703E0B8B2154909688C
:1024500088472046641CB042F7DDBDE8F0812DE9D5
:10246000F04107460C46154611200F490968884778
:102470004FF4D0400B490968884745200A4909684C
:102480008847A18840F23F12511A88B2054909686D
:1024900088474620044909688847218840F23F124E
:1024A000511A03E0DC0A0020E00A002088B2384913
:1024B000096888474420374909688847B4F90610F5
:1024C000C1F1EF01B4F90220C2F1EF0241EA0221A9
:1024D00088B22F49096888474E202E4909688847E5
:1024E000218840F23F12511A88B229490968884769
:1024F0004F20284909688847B4F90210C1F1EF015B
:1025000088B22349096888472220224909688847F8
:10251000B4F90400B4F90010401A401CB4F90610D4
:10252000B4F90220891A491C00FB01F604E0A8B2A4
:10253000174909688847761E002EF8DA45201549A4
:1025400009688847002012490968884746201149D0
:102550000968884740F23F100D49096888474420C0
:102560000C49096888474FF46F4009490968884752
:10257000BDE8F081024601F47800000A01F47C43D2
:1025800040EA5310C1F3C40318437047704700007A
:10259000DC0A0020E00A002070B5FE48B0F90040D7
:1025A000FD48B0F90050FD4800686043FB494968A8
:1025B00005FB0100F94989680844F849896990FBDD
:1025C000F1F6F648C0686043F449096905FB01006B
:1025D000F24949690844F149896990FBF1F53446AB
:1025E000EC48B0F90000EE49B1F90010884207DB71
:1025F000E948B0F90000EA49B1F9001088423DDA33
:10260000E848007800F0800010B90020E549087023
:10261000E4480078002830D0E2480078401EE149C4
:10262000087008460078802827D100200870DE480E
:1026300000680028EFD0DD4890F9000000280BDA90
:10264000DB48B0F90220B0F900100220D64B1B681D
:1026500098470020D5490870D54BD44890F9000020
:10266000401C33F910201846D04B93F9003030F954
:1026700013100420CC4B1B68984783E0C9480078AE
:1026800000F0800030B1C7480078832802D0832052
:10269000C4490870C3480078832813D0C148007823
:1026A000401CC04908700846007803286AD183207E
:1026B0000870F820BD49087020B2BD49088028B2D2
:1026C00048805FE0B94890F90000801CA0B9B64886
:1026D000006840B1B648B0F90220B0F900100220FD
:1026E000B14B1B68984720B2B149088028B2488096
:1026F0000220AE49087045E0AC4890F9000000287F
:1027000016DA21B2AA4AA94890F900000A3022F844
:1027100010102AB2A649A54890F900000B3021F804
:102720001020A2480078801C40B2A049087029E01F
:102730009D48006880B19E4B9C4890F90000401C69
:1027400033F910201846994B93F9003030F91310E3
:102750000320954B1B68984721B29548934A92F9FC
:10276000002020F812102AB20146904890F900008B
:10277000401C21F810208D480078801C00F00700D4
:102780008A49087070BD10B508208A49C8608A4817
:10279000006805281CD2DFE800F06B1C64034B00C6
:1027A0008448A83000688548006840F020008349CC
:1027B00008608348006820F0200081490860814853
:1027C000006820F040007F49086001207A490860D5
:1027D0007DE07848A830006800B26E4908807748EC
:1027E000006820F02000754908607548006840F0D6
:1027F0003000734908607448006840F00200724974
:1028000008607048006840F040006E490860002091
:102810006E4988606E49C1F8000120206D4908604A
:1028200007206449A03108600420634908604EE035
:102830006048A83000686148006840F010005F49B7
:1028400008605F48006820F010005D4908605E483D
:10285000006820F002005C490860022056490860C8
:1028600035E05448A830006800B24B49088000BFEA
:102870005248006820F01000504908605048006835
:1028800040F030004E4908604F48006840F00200B8
:102890004D4908604B48006840F0400049490860D5
:1028A00010204C4908600020484988604849C1F818
:1028B000000106203F49C1F8A0003F4800680228F7
:1028C00001D1FFF769FE03203B49086000BF00BF4C
:1028D00010BD70B504460020374908602F483E49B6
:1028E00008600020304908603C4803F0D3FC3C48B5
:1028F00003F0D0FC3A480B3003F0CCFC38480830E9
:1029000003F0C8FC374803F0C5FC1021294801F04A
:1029100036FF002305220321264801F06BFF324BCE
:1029200000220321234801F0ADFF0321214801F0DB
:10293000A2FF03211F4801F02EFF212002F044FED8
:1029400030212448C03802F0FAF902211F4802F071
:10295000F6F940211E4802F0F2F9002230211D480C
:10296000C03802F016FA00220221184802F011FACB
:1029700000224021164802F00CFA1C48C06800F002
:10298000010030B91A49194803F098FC4FF4C87097
:1029900030E040E0F00A0020F20A002078850000D4
:1029A000E80A0020F80A0020F40A0020F90A0020B2
:1029B000D464002000800340EC0A00202875004009
:1029C0000074004000340640006406400060064089
:1029D00000300640C0700040E40A0020003800F0DB
:1029E000030800F0010400F06600C000001003407E
:1029F00022220004B4FBF0F0451E2A46FF210848BD
:102A000003F0BFFC0122FF21054803F087FCFF21F2
:102A1000034803F0A9FC70BD02490860704700003C
:102A200000100340F40A002002480349014A034B06
:102A300070470000A8660020A86A0020A866002051
:102A400070B50B46002103E05C5C4454491C521EE7
:102A500012B15C5C002CF7D104E000260C46491C46
:102A60000655521E002AF8D170BD2DE9FF4F83B0E4
:102A700006460C4690464FF0000904B1641E4FF024
:102A8000000943E1002500E06D1C18F80500252829
:102A900003D018F805000028F6D1A54207D9224630
:102AA00041463046FFF7CCFF2644002406E02A4684
:102AB00041463046FFF7C4FF2E44641BA944A84496
:102AC00098F800002528DCD108F101080027202013
:102AD000009000BF18F8011B382932D014DC3329CC
:102AE0002AD008DC252973D0302922D0312921D0E1
:102AF00032296ED11FE034291FD035291ED0362946
:102B00001DD03729F5D11BE0692935D008DC3929DA
:102B100018D0582976D0632922D06429E9D12AE037
:102B200070297DD0732938D075296ED07829E0D1ED
:102B300074E000BF00BF00BF00BF00BF00BF00BF08
:102B400000BF00BF18F8010C302801D107B9009070
:102B500007EB8700470018F8010C30380744B9E745
:102B6000069850F804BB069014B106F801BB641E29
:102B700009F10109C9E000BF069850F804BB0690AE
:102B8000BBF1000F04DACBF1000B0120029001E051
:102B9000002002904FF00A0A4BE00698006801906E
:102BA0000698001D0690002500E06D1C0198405D10
:102BB0000028FAD1AF4201D9781B8144A54209D936
:102BC000224630460199FFF73BFF2644002417E0D8
:102BD0007EE086E02A4630460199FFF731FF2E4419
:102BE000641BAF420CD97F1BA74200D927467C4209
:102BF00002E0202006F8010B381EA7F10107F8D1EA
:102C0000A94482E00BE00BE0FFE7069850F804BB14
:102C100006904FF00A0A002002900AE000BF00BFB1
:102C2000069850F804BB06904FF0100A002002905E
:102C300000BF012502E005FB0AF57F1E05FB0AF037
:102C4000584505D805FB0AF0B0FBFAF0A842F2D0CF
:102C5000029800B17F1E029858B154B100983028F4
:102C600007D12D2006F8010B641E09F1010900208F
:102C70000290012F0ED9B7F5803F0BD27F1E07E0DF
:102C80001CB1009806F8010B641E09F101097F1EB2
:102C9000002FF5D1029830B12CB12D2006F8010B90
:102CA000641E09F1010910E05CB1BBFBF5F0B0FB5B
:102CB000FAF10AFB1100FE490968085C06F8010BED
:102CC000641E09F10109B5FBFAF5002DECD11CE0F9
:102CD00024B118F8010C06F8010B641E09F1010972
:102CE00013E0052C07D30522F2A13046FFF7A8FE1A
:102CF000761D641F06E02246EEA13046FFF7A0FED7
:102D00002644002409F1050900BF00BF98F800001F
:102D100000287FF4B7AE3070484607B0BDE8F08FAA
:102D20000FB438B5044606A800904FF6FF71204650
:102D3000009B059AFFF799FE054600200090284663
:102D400038BC5DF814FB0FB478B504460D4608A8EE
:102D5000009029462046009B079AFFF786FE06460C
:102D600000200090304678BC5DF814FB70B50A4630
:102D70003C24B0FBF4F1C1EB0114A0EB840414601B
:102D800008463C24B0FBF4F1C1EB0114A0EB840431
:102D9000546008461824B0FBF4F101EB4104A0EBA9
:102DA000C40494600846041D0725B4FBF5F605FB32
:102DB0001644946100F2DB2040F2B554B0FBF4F10C
:102DC00001FB14043B2C02D9491C0C2300E0022314
:102DD000441A40F26D15B4FBF5F44434546154695F
:102DE000443C04FB0514001B002106E0B34C54F8DE
:102DF0002140844200D902E0491C9942F6D300BF29
:102E00004C1E1461AD4D55F82440041B641CD46065
:102E100070BD024650694B69984201DD0120704740
:102E200050694B69984202DA4FF0FF30F7E71069BA
:102E30000B69984201DD0120F1E710690B699842A6
:102E400002DA4FF0FF30EAE7D068CB68984201DD44
:102E50000120E4E7D068CB68984202DA4FF0FF30F7
:102E6000DDE790688B68984201DD0120D7E7906824
:102E70008B68984202DA4FF0FF30D0E750684B6819
:102E8000984201DD0120CAE750684B68984202DA97
:102E90004FF0FF30C3E710680B68984201DD012056
:102EA000BDE710680B68984202DA4FF0FF30B6E7D2
:102EB0000020B4E7F0B58BB007464FF000456C0832
:102EC00069462846FFF752FF69463846FFF7A1FFDB
:102ED00006460FE0002E01DD281900E0281B0546FC
:102EE000640869462846FFF741FF69463846FFF700
:102EF00090FF06460EB1002CECD116B928460BB057
:102F0000F0BD4FF0FF30FAE72DE9F04105460B46E2
:102F100000240027A446294600E0491C0878202800
:102F2000FBD008780928F8D008782D2802D101278D
:102F3000491C03E008782B2800D1491C0AB1102A4B
:102F40000AD10878302807D14878782802D0487804
:102F5000582801D1891C10222AB90878302801D1BB
:102F6000082200E00A2229E00878302807DB0878E8
:102F7000392804DC11F8010BA0F1300616E00878BE
:102F8000412807DB08785A2804DC11F8010BA0F16E
:102F900037060BE00878612807DB08787A2804DC1C
:102FA00011F8010BA0F1570600E008E0964201D3AA
:102FB000491E04E0544334444FF0010CD4E700BFF1
:102FC00033B1BCF1000F01D0084600E0284618607C
:102FD00017B16042BDE8F0812046FBE72DE9F041E2
:102FE00004460B469FED360AF0EE400A0027002605
:102FF000204600E0401C90F800C0BCF1200FF9D042
:1030000090F800C0BCF1090FF4D090F800C0BCF1FA
:103010002D0F02D10127401C05E090F800C0BCF143
:103020002B0F00D1401C12E0B2EE040A20EE800A01
:10303000F0EE400A10F801CBACF1300C00EE10CAF3
:10304000B8EEC00A30EE200AF0EE400A012690F8F1
:1030500000C0BCF1300F04DB90F800C0BCF1390FA8
:10306000E2DD90F800C0BCF12E0F3AD190F801C01B
:10307000BCF1300F35DB90F801C0BCF1390F30DC0A
:10308000401CDFED101A22E010F801CBACF1300C3F
:1030900000EE10CAB8EEC02AB0EE600A02EE210AB5
:1030A000F0EE400AB2EE040A81EE802A0CE0000045
:1030B000948500004552524F520000009885000050
:1030C00000000000CDCCCC3DF0EE421A012690F875
:1030D00000C0BCF1300F04DB90F800C0BCF1390F28
:1030E000D2DD90F800C0BCF1650F04D090F800C0AC
:1030F000BCF1450F6AD1012E68D190F801C0BCF136
:10310000300F04DB90F801C0BCF1390F13DD90F8EB
:1031100001C0BCF12B0F04D090F801C0BCF12D0F01
:1031200054D190F802C0BCF1300F4FDB90F802C0D0
:10313000BCF1390F4ADC401C002590F800C0BCF1FE
:103140002D0F02D10125401C05E090F800C0BCF114
:103150002B0F00D1401C002208E002EB820C4FEA4A
:103160004C0210F801CBACF1300C624490F800C076
:10317000BCF1300F04DB90F800C0BCF1390FECDD7E
:10318000B7EE001A002113E04FF0010C0CFA01FC1D
:103190000CEA020CBCF1000F09D0DFF86CC10CEB9B
:1031A000810C9CED000A20EE010AB0EE401A491C89
:1031B0000729E9D3012D05D1B7EE000A80EE012AD7
:1031C000B0EE421A20EE810AF0EE400A2BB10EB1A9
:1031D000844600E0A446C3F800C02FB11FED480AA2
:1031E00030EE600ABDE8F081B0EE600AFAE7014611
:1031F000002000E0401C0A5C002AFBD1704710B59B
:10320000034615E0187818B9087808B9002010BDF1
:1032100008781C78A04201DA0120F8E718780C78C9
:10322000A04202DA4FF0FF30F1E75B1C491C521E4E
:10323000002AE7D10020EAE770B504460D4628468B
:10324000FFF7D5FF064608E0324621462846FFF73D
:10325000D6FF08B9204670BD641C20780028F3D141
:1032600000BFF8E730B5034627E0187818B90878AA
:1032700008B9002030BD1878412805DB18785A2895
:1032800002DC1878203000E01878C4B208784128B1
:1032900005DB08785A2802DC0878203000E008783E
:1032A000C5B2A54201DA0120E4E7AC4202DA4FF0F0
:1032B000FF30DFE75B1C491C521E002AD5D10020DD
:1032C000D8E730B504460D464FF0FF322946204678
:1032D000FFF7C8FF30BD30B504460D464FF0FF3252
:1032E00029462046FFF78BFF30BD0849086070472C
:1032F00006480068064948430649084403490860EF
:103300000846006870470000C8850000FC0A0020DD
:103310000D6619005FF36E3C2DE9F0432DED068B31
:10332000ADF5157D06460F4600242DE0D04800EB94
:10333000C40090ED001BB0EE410AF0EE610A51ECC2
:10334000100B03F0C5FC00EE100A06EB8400D0ED74
:10335000000A70EEC08AC74800EBC40090ED001B65
:10336000B0EE410AF0EE610A51EC100B03F0B0FC34
:1033700000EE100AFFEE000A48EE800A88A800EB73
:103380008400C0ED000A641C0C2CCFDBF022BA498B
:103390004CA801F0DCF8002532E09FEDB80AB0EE51
:1033A000408A002413E01E2000FB0450B44901EBC6
:1033B0008000D0ED000A88A800EB840090ED001A90
:1033C000B0EE480A00EE810AB0EE408A641C0C2C74
:1033D000E9DB4CA800EBC50090ED001BB0EE410A04
:1033E000F0EE610A51EC100B03F072FC00EE100AD3
:1033F00030EE080A2EA800EB850080ED000A6D1C57
:103400001E2DCADB002521E02EA800EB850090EDE3
:10341000000AF8EE000A20EE200A10EE101A084604
:1034200004F0A0FE41EC1A0BB0EE4A0AF0EE6A0A74
:1034300003F0FAF9B0EE409AF0EE609A51EC190BF5
:1034400003F046FC10A941F825006D1C1E2DDBDBA6
:1034500000240AE08B4800EBC40090ED000B06A8A6
:1034600000EBC40080ED000B641C052CF2DB002592
:1034700016E010A800EB850090ED000AF7EE000AB8
:1034800070EE200AB0EE001A81EE200AF7EE000A74
:1034900030EE600A2EA800EB850080ED000A6D1C5E
:1034A0001E2DE6DB002532E09FED740AB0EE408A67
:1034B000002413E0052000FB0450734901EB800059
:1034C000D0ED000A2EA800EB840090ED001AB0EEBB
:1034D000480A00EE810AB0EE408A641C1E2CE9DB2B
:1034E00006A800EBC50090ED001BB0EE410AF0EE1F
:1034F000610A51EC100B03F0EBFB00EE100A30EE0A
:10350000080A01A800EB850080ED000A6D1C052D5E
:10351000CADB01249DED010AB0EE408ADDED010A0F
:10352000B0EE600A00F01CF900B302254FF000086D
:1035300017E02C46681E01A901EB8000D0ED000ABF
:10354000B0EE600A00F00CF950B9681E01A901EB59
:10355000800090ED000AB0EE408A4FF0010800E0D4
:103560006D1CB8F1000F01D1062DE2DB052C15DA38
:1035700011E001A800EB840090ED000AB4EEC80A47
:10358000F1EE10FA06DD01A800EB840090ED000AD0
:10359000B0EE408A641C601C0628EADB00241FE0B1
:1035A00001A800EB840090ED000A30EE480A10EE0E
:1035B000101A084604F0D6FD41EC1A0BB0EE4A0A88
:1035C000F0EE6A0A03F030F9B0EE409AF0EE609A3D
:1035D00051EC190B03F07CFB01A941F82400641C99
:1035E000052CDDDB9DED010AB0EE408A00240AE0E7
:1035F00001A9601C01EB800090ED000A30EE080A82
:10360000B0EE408A641C042CF2DB8DED008AB5EE2E
:10361000C08AF1EE10FA01D1012000E000208146BD
:103620000024B9F1000F00D00124002504E0B7EE1A
:10363000000A8DED000A0125601EA842F7DA002479
:103640000DE001A800EB840090ED000ADDED000A1A
:1036500080EE201A07EB840080ED001A641C052C14
:10366000EFDB0DF5157DBDEC068BBDE8F0830000AA
:1036700040860000E0850000A086000000000000F9
:1036800090870000308D0000588D000010B5044672
:1036900000F03AF9374880ED000B00F019F9364890
:1036A00080ED000A00F079F8344880ED000B00F05E
:1036B0006DF8334880ED000A00F0BAF8314880ED2B
:1036C000000B00F0AFF8304880ED000A10BD10B5D7
:1036D0002DED028BB0EE408AF0EE608A274890ED27
:1036E000000B53EC102B51EC180B03F043FF09D0E7
:1036F000244890ED000B53EC102B51EC180B03F009
:1037000039FF03D10120BDEC028B10BD0020FAE788
:103710001B48D0ED000AB4EE600AF1EE10FA07D0B3
:103720001948D0ED000AB4EE600AF1EE10FA01D1AA
:10373000012070470020FCE710B52DED028BB0EEA4
:10374000408AF0EE608A53EC182B51EC180B03F012
:1037500011FF03D00120BDEC028B10BD0020FAE761
:10376000B4EE400AF1EE10FA01D0012070470020BB
:10377000FCE70000100B0020200B0020000B0020B5
:10378000180B0020080B00201C0B002008B54FF080
:10379000FF4000909DED000A08BD30B52DED028B75
:1037A00083B040249FED450BB0EE408AF0EE608A76
:1037B000202C09D1FFF7EAFF10EE105A284604F03A
:1037C000D1FC41EC180B25E0012102919DF8081075
:1037D000012901D0012100E00021084610B1012893
:1037E00016D10AE037490191002100919DED000BAF
:1037F000B0EE408AF0EE608A0AE032490091002182
:1038000001919DED000BB0EE408AF0EE608A00BFA2
:1038100000BF00BFB0EE480AF0EE680A03B0BDEC8E
:10382000028B30BD08B5284800909DED000A08BD08
:1038300030B52DED028B83B040249FED200BB0EE10
:10384000408AF0EE608A202C09D1FFF7EBFF10EEE2
:10385000105A284604F086FC41EC180B25E00121A3
:1038600002919DF80810012901D0012100E00021FA
:10387000084610B1012816D10AE01449019100212F
:1038800000919DED000BB0EE408AF0EE608A0AE0F8
:103890000E490091002101919DED000BB0EE408A90
:1038A000F0EE608A00BF00BF00BFB0EE480AF0EE45
:1038B000680A03B0BDEC028B30BD000000000000C0
:1038C000000000000000F07F000080FF0000F0FF1B
:1038D0000CB500210191012100919DF800100129F2
:1038E00001D0012100E00021084610B1012807D1D4
:1038F00002E02949019103E06FF00041019100BF0E
:1039000000BF9DED010A0CBD30B52DED028B83B0DB
:1039100040249FED220BB0EE408AF0EE608A202C0E
:1039200009D1FFF7D5FF10EE105A284604F01AFC13
:1039300041EC180B27E0012102919DF808100129A4
:1039400001D0012100E00021084610B1012818D162
:103950000AE014490191002100919DED000BB0EEA9
:10396000408AF0EE608A0CE06FF0004100914FF069
:10397000FF3101919DED000BB0EE408AF0EE608AC0
:1039800000BF00BF00BFB0EE480AF0EE680A03B007
:10399000BDEC028B30BD00000000C0FF0000000045
:1039A000000000000000F8FF93081BD090ED000A13
:1039B000D0ED011AD0ED020A90ED031AB0EEC00A64
:1039C00081ED000AF0EEE11AB0EEE00AC1ED011A55
:1039D000F0EEC10A81ED020AC1ED030A1030103188
:1039E0005B1EE3D112F0030208BF7047B2F1004F33
:1039F00023D2002AD8BF7047001F091F12F0010F01
:103A000007D090ED010A001DB0EEC00A81ED010A59
:103A1000091D520808BF704790ED010AB0EEC00AB8
:103A200081ED010A90ED020A0830B0EEC00A81ED86
:103A3000020A0831521EEFD17047B0EC010A521E43
:103A4000B0EEC00AA1EC010AF7D1704770B49FED47
:103A50003F0A960829D0B446B6F1004F50D2002E46
:103A6000C4BF05460C4620DDD5ED000A94ED001AD2
:103A700000EE810AD5ED010A94ED011A00EE810AEB
:103A8000D5ED020A94ED021A00EE810AD5ED030A83
:103A900094ED031A10341035BCF1010C00EE810ACC
:103AA000E2D100EB061001EB061112F0030223D065
:103AB000B2F1004F41D2002A1EDD001F091F12F093
:103AC000010F07D0D0ED010A91ED011A001D091D6B
:103AD00000EE810A52080FD0D0ED010A91ED011AD3
:103AE00000EE810AD0ED020A91ED021A0830083189
:103AF000521E00EE810AEFD183ED000A70BC7047C0
:103B0000D0ED000A91ED001A00EE810AD0ED010A15
:103B100091ED011A00EE810AD0ED020A91ED021A30
:103B200000EE810AD0ED030A91ED031A1030103136
:103B3000761E00EE810AE3D1B7E7F0EC010A521ECF
:103B4000B1EC011A00EE810AF7D1D5E700000000C0
:103B50005FEA930C26D000BFD0ED003A91ED001A39
:103B6000D0ED010A91ED013A33EEC11AD0ED022AEF
:103B700070EEC30A91ED022A90ED030AD1ED031A0B
:103B800082ED001AC2ED010A72EEC20A30EE610A3D
:103B90001030C2ED020A82ED030A10311032BCF17E
:103BA000010CD9D113F0030308BF7047B3F1004FE4
:103BB0002CD2002BD8BF7047001F091F121F13F013
:103BC000010F0AD090ED010AD1ED010A001D091D77
:103BD00030EE600A82ED010A121D5B0808BF7047D3
:103BE00090ED010AD1ED010A30EE600A82ED010A82
:103BF00090ED020AD1ED020A0830083130EE600A79
:103C000082ED020A08325B1EEAD17047B0EC010A6D
:103C10005B1EF1EC010A30EE600AA2EC010AF5D15C
:103C2000704700002DE9F04F82B099420B9E24BFEF
:103C30000546174604D2074618460B461546014668
:103C4000A1EB030000F10100B3F101080190C146AE
:103C50004FF0010A28463A469FEDFE4A67D000BF62
:103C6000B0EE440A5FEA9A0C2CD06446BCF1004FD7
:103C700080F00682BCF1000FC4BFAE46934621DD42
:103C8000DEED000A9BED001A641E00EE810ADEEDF7
:103C9000010A1BED011A00EE810ADEED020A1BED9E
:103CA000021A00EE810ADEED030A1BED031AABF1E6
:103CB000100B0EF1100E00EE810AE1D100EB0C109A
:103CC000A2EB0C121AF0030C27D0BCF1004F80F0CD
:103CD000F781BCF1000F20DD041F101D1CF0010F47
:103CE00007D0D4ED010A10ED011A001F241D00EECB
:103CF000810A5FEA5C0210D0D4ED010A10ED011ACE
:103D000000EE810AD4ED020A10ED021A0838521EA4
:103D100004F1080400EE810AEED107EB8A02A6EC5A
:103D2000010A2846B8F101080AF1010A98D107EB07
:103D30008302A2F1040B00925A464FF0000A042BB2
:103D40007DD3DDF804C05FEA9C0418BF9F0870D0E3
:103D5000F0EE441AD0ED003A90ED012AD0ED022A9F
:103D6000B0EE610AF0EE610AB0EE611ABC460C30AA
:103D700092ED003AD0ED004A904603EE830A42EEFF
:103D8000030A02EE831A44EE831A12ED013AD0EDD3
:103D9000013A02EE030A42EE830A04EE831A43EE6E
:103DA000831A12ED023A90ED022A02EE830A44EEE3
:103DB000830A03EE831A42EE031A12ED033AD0EDA2
:103DC000032A103004EE830A43EE830A02EE031A3C
:103DD00042EE831AA8F11002BCF1010CC8D113F015
:103DE000030C15D0D2ED004A121FB0EC013A03EEDD
:103DF000A40A42EE240A02EEA41AF0EE423A43EE7E
:103E0000241AB0EE622AF0EE432ABCF1010CE9D18B
:103E100086ED000AC6ED010A86ED021AC6ED031A08
:103E20000AF1040A05EB8A005A46641E06F11006E0
:103E30008ED1DDF804C01CF0030E6CD000E06BE006
:103E4000C3F3400C4FEA9308CDF804C0B0EE440A27
:103E5000B8F1000C2BD06446B8F1004F80F03C81E3
:103E6000002C24DD0446DC464FEA0807D4ED000AA6
:103E70009CED001A00EE810AD4ED010A1CED011A36
:103E800000EE810AD4ED020A1CED021A00EE810A4E
:103E9000D4ED030A1CED031A10347F1EACF1100C94
:103EA00000EE810AE2D100EB0810A2EB081213F039
:103EB000030C26D0BCF1004F80F02E81BCF1000F26
:103EC0001FDD141D001F1CF0010F07D0D0ED010AEB
:103ED00014ED011A001D241F00EE810A019A82B11F
:103EE000D0ED010A14ED011A00EE810AD0ED020AAC
:103EF00014ED021A0830521EA4F1080400EE810AE3
:103F0000EED10AF1010AA6EC010A05EB8A005A4635
:103F1000BEF1010E9AD137E0019CACB3B0EE440A79
:103F2000B3F1000C27D06746B3F1004F7ED2002FCB
:103F300021DD001F0BF1040213F0010F07D0D0EDBB
:103F4000010A12ED011A001D121F00EE810A5FEA3C
:103F5000630C10D0D0ED010A12ED011A00EE810AB7
:103F6000D0ED020A12ED021A0830083ABCF1010C39
:103F700000EE810AEED10AF1010AA6EC010A05EB76
:103F80008A005A46641EC9D105EB81000099A0EB56
:103F90008300041D0D1F20462946B9F1000F04BF00
:103FA00002B0BDE8F08F00BFB0EE440A5FEA9902AC
:103FB0002AD01346B2F1004F7DD2002AC4BFA446D6
:103FC0002F4621DDDCED000A97ED001A5B1E00EEA6
:103FD000810ADCED010A17ED011A00EE810ADCED21
:103FE000020A17ED021A00EE810ADCED030A17ED52
:103FF000031AA7F110070CF1100C00EE810AE1D1B1
:1040000000EB0210A1EB021119F003022CD0B2F167
:10401000004F7CD2002A27DD031F091D12F0010F7B
:1040200009D0D3ED010A11ED011A00E07FE000EEA6
:10403000810A091F1B1D500816D000BFD3ED010ACD
:1040400011ED011A00EE810AD3ED020A11ED021AF8
:1040500002E000000000000000EE810A401EA1F115
:10406000080103F10803E9D1201DA6EC010A04466A
:104070002946B9F1010997D102B0BDE8F08F00BF20
:10408000D0ED000A92ED001A00EE810AD0ED010A8F
:1040900012ED011A00EE810AD0ED020A12ED021AA9
:1040A00000EE810AD0ED030A12ED031A1030103A27
:1040B00000EE810A00E045E0BCF1010CE0D101E630
:1040C000F0EC010A92ED001A121FBCF1010C00EE97
:1040D000810AF5D121E600BFD0ED000A92ED001A69
:1040E00000EE810AD0ED010A12ED011A00EE810AFC
:1040F000D0ED020A12ED021A00EE810AD0ED030A99
:1041000012ED031A1030103A00EE810A00E036E09A
:10411000BCF1010CE0D1CAE6F0EC010A92ED001A04
:10412000121FBCF1010C00EE810AF5D1E9E6F0ECBA
:10413000010A92ED001A121FBCF1010C00EE810A77
:10414000F5D118E7D0ED000A91ED001A00EE810AD2
:10415000D0ED010A11ED011A00EE810AD0ED020A3C
:1041600011ED021A00EE810AD0ED030A11ED031AD7
:1041700010391030521E00EE810AE3D144E7F0EC12
:10418000010A91ED001A091F521E00EE810AF6D1B4
:104190006AE7000070B44FF0000CB0EC010A4E1E4C
:1041A0006446B50831D000BFD0ED000A90ED011A89
:1041B0000830B4EEE00AF1EE10FA3CBFB0EE600A4F
:1041C0000CF10104F0EC010AB4EEC10AF1EE10FAB0
:1041D0003CBFB0EE410A0CF10204B0EC011AB4EE9F
:1041E000E00AF1EE10FA3CBFB0EE600A0CF10304F5
:1041F000B4EEC10AF1EE10FA3CBFB0EE410A0CF188
:1042000004046D1E0CF1040CCED106F0030C5FEA21
:104210000C0617D0B6F1004F19D2002EC8BF0025EA
:1042200010DD00BFD0ED000AF4EEC00AF1EE10FA86
:1042300004DD4C19B0EE600AA4EB0C04001D6D1CEB
:10424000761EEFD182ED000A1C6070BC7047F0EC66
:10425000010AB4EEE00AF1EE10FA3CBFB0EE600ADB
:10426000A1EB0C04BCF1010CF1D1EBE79FED391A85
:1042700010B4B0EE410A5FEA910C1ED0BCF1004FC1
:104280004CD2BCF1000FC4BF0346644615DD00BF2D
:10429000D3ED000A00EEA00AD3ED010A00EEA00A59
:1042A000D3ED020A00EEA00AD3ED030A1033641E18
:1042B00000EEA00AECD100EB0C1011F003031AD0B1
:1042C000B3F1004F3FD2002B15DD001F13F0010F9B
:1042D00004D0D0ED010A001D00EEA00A5B080AD050
:1042E000D0ED010A00EEA00AD0ED020A08305B1EF4
:1042F00000EEA00AF4D100EE901AF8EE601AC0EEBB
:10430000210AF5EEC00AF1EE10FAA6BFB1EEE00AFE
:1043100082ED000A82ED001A10BC7047D0ED000A51
:1043200000EEA00AD0ED010A00EEA00AD0ED020ACC
:1043300000EEA00AD0ED030A1030BCF1010C00EE33
:10434000A00AEBD1B9E7F0EC010A5B1E00EEA00A6F
:10435000F9D1D0E70000000010B49FED470A012911
:10436000F0EE400A02BF82ED000A10BC70478B08D5
:1043700026D09C46B3F1004F58D2002BC8BF04464C
:104380001EDD00BF94ED001A01EE010A71EE201A45
:10439000D4ED010A30EEA11A00EEA00AD4ED020A13
:1043A00070EE811A94ED031A00EEA00A103471EE3B
:1043B000210ABCF1010C01EE010AE3D100EB03106C
:1043C00011F003030CD0B3F1004F4BD2002B07DDEB
:1043D000B0EC011A5B1E01EE010A70EE810AF7D102
:1043E00001EE101AF7EE001AB8EE411A31EE612A0A
:1043F00080EE021A00EE101AB8EE402A80EE820A11
:1044000000EE901AF8EE600A70EEE11A00EE901AD3
:10441000B8EE602AC2EE210A20EE000A20EE800AE1
:1044200031EE400A82ED000A10BC704790ED001A90
:1044300001EE010A70EE811AD0ED010A31EEA01AE8
:1044400000EEA00AD0ED020A71EE201A90ED031AD8
:1044500000EEA00A103071EE810A5B1E01EE010A27
:10446000E4D1ADE7B0EC011A5B1E01EE010A70EE7B
:10447000810AF7D1B4E70000000000008A0817D0D5
:10448000B2F1004F31D2002AC4BF034694460FDD7B
:10449000F0EE400AC3ED000AC3ED010AC3ED020AC3
:1044A000C3ED030A1033BCF1010CF1D100EB021093
:1044B00011F0030108BF7047B1F1004F23D200296A
:1044C000D8BF7047021F11F0010F1CBF82ED010A17
:1044D000121D480808BF704782ED010A82ED020AEA
:1044E000401E02F10802F7D17047F0EE400AC0ED1D
:1044F000000AC0ED010AC0ED020AC0ED030A103047
:10450000521EF2D1D4E7A0EC010A491EFBD170473C
:1045100010B5431C02E010F8011B71B18107FAD1FC
:104520004FF0013202C88C1A8C4314EAC211F9D040
:10453000C01A0A0603D0C01E10BDC01A10BD0A045E
:1045400001D0801E10BD0902FCD0401E10BD10B568
:10455000203AC0F00B80B1E81850203AA0E818507B
:10456000B1E81850A0E81850BFF4F5AF5FEA027C3C
:1045700024BFB1E81850A0E8185044BF18C918C0AB
:10458000BDE810405FEA827C24BF51F8043B40F84C
:10459000043B08BF7047D20728BF31F8023B48BF31
:1045A00011F8012B28BF20F8023B48BF00F8012B6F
:1045B000704770477047704710B500F009F8006801
:1045C00010BD10B5044600F003F8046010BD0000F3
:1045D00000487047446600201FB584B000200A9C44
:1045E00006AB04AA02A90094AFF3008018B1DDE97C
:1045F000020108B010BD0348204000F037F8002049
:104600000146F6E70000207C004870474466002021
:104610007546FFF7F9FFAE4605006946534620F0A0
:104620000700854618B020B5FEF7FEF9BDE820402A
:104630004FF000064FF000074FF000084FF0000B5E
:1046400021F00701AC46ACE8C009ACE8C009ACE811
:10465000C009ACE8C0098D46704710B50446AFF3F9
:1046600000802046BDE81040FBF741BE10B500F0C9
:1046700009F8BDE81040AFF30080002801D000F039
:1046800057B8704710B5022803D0410103D50DA1DA
:1046900012E0002010BD010101D50FA10CE0C10006
:1046A00001D511A108E0810001D512A104E040006C
:1046B00001D513A100E0002115A000F03FF8012072
:1046C00010BD0000496E76616C6964204F706572A0
:1046D0006174696F6E000000446976696465204208
:1046E00079205A65726F00004F766572666C6F773D
:1046F00000000000556E646572666C6F7700000004
:10470000496E657861637420526573756C7400003E
:104710005349474650453A2041726974686D657443
:10472000696320657863657074696F6E3A20000074
:1047300001491820ABBEFEE72600020070B5054611
:104740000C460A2000E06D1C00F011F835B1287805
:104750000028F8D102E0641C00F009F814B12078B8
:104760000028F8D1BDE870400A20AFF3008008B5FA
:1047700069468DF800000320ABBE08BD70470022DB
:10478000490814BF521C0263FAD17047012202FA91
:1047900001F1C1607047012202FA01F1C160826833
:1047A00011438160704732B1C0684FF0011202FAC4
:1047B00001F108407047406801228A4042F480328B
:1047C000104010F4803F08BF704740F470204FF451
:1047D000803202FA01F1884370470A4601F00F0166
:1047E00001236FF30F0203FA01F11143826A1143AF
:1047F0008162704730B4446989004FF00F0C0CFAA5
:1048000001FC02F00F0524EA0C048D402C434461A6
:10481000046A03F0030324EA0C0C8B404CEA030304
:104820000362C36949004FF0300C0CFA01FC02F03E
:10483000300223EA0C0302FA01F11943C16130BCD2
:10484000704700EB411000F14001002003E08B684D
:1048500042F8043B401CCB6813F4807F18BF7047BC
:104860000828F4D370470268012303FA01F122EA11
:104870000101016070470268012303FA01F111434D
:104880000160704710B400EB4110910050F840CF28
:104890000F228A4003F00F042CEA020C8C404CEAF1
:1048A000040CC0F800C0D0F818C0C3F303242CEAED
:1048B000020C8C404CEA040CC0F818C0D0F804C0BC
:1048C000C3F303142CEA020C8C404CEA040CC0F82D
:1048D00004C0D0F81CC0C3F303542CEA020C8C4073
:1048E0004CEA040CC0F81CC013F4702F4FF0010404
:1048F0000DD0D0F814C0C3F302432CEA02028B405F
:104900001A434261026904FA01F1114304E00269A9
:1049100004FA01F122EA0101016110BC704770B58F
:104920008EB00446012904D00EB0BDE8704001F0FD
:10493000CFBD02A8216900F06BFA04F1140102A8AE
:1049400000F02AFA94F8200010F0020F0BD0039A1E
:104950000398616A126A40689047069004F1140156
:1049600002A800F067FD94F8200010F0010F0BD0B2
:10497000039A0398A16A126A40689047069004F16E
:10498000140102A800F020FD216A11F00C0F7DD067
:10499000B4F91820B4F91400B4F91A30121A521CE0
:1049A00002EBD27200EB6205B4F91620981A401C93
:1049B00000EBD07002EB600611F0010F13D0BDF8D0
:1049C0001000401CADF81000BDF81200401CADF8FE
:1049D0001200BDF81400401EADF81400BDF816001A
:1049E000401EADF8160094F8200010F0080F19D002
:1049F000039A0398E16A126A406890470690039A06
:104A00000398616A126A406890470790A16BB1F8F9
:104A10000300A6EB5003B1F80100A5EB500202A879
:104A200000F076FC94F8200010F0040F35D002A8B6
:104A3000216B00F0E9F9039A0398E16A126A406871
:104A400090470690039A0398616A126A40689047FB
:104A500007904FF0FF3202A8616B00F055FD216A0C
:104A600011F0400F18BFBDF9105022D0089800F087
:104A700039FC216A11F4807F18BFBDF9120023D0E0
:104A800001F02001CDE900012B4600E005E04FF0E8
:104A9000FF3202A8616B00F027FD94F8200010F0AF
:104AA000100F03D0E26B204602A990470EB0012000
:104AB00070BD11F0800F19BFBDF914100D1A00EB75
:104AC000D070A5EB6005D1E711F4007F19BFBDF9E7
:104AD0001620101A00EBD070A6EB6000D0E70000A3
:104AE0000248016841F470010160704788ED00E000
:104AF0000248016841F040410160704734EF00E036
:104B0000D0F8003412F0010F14BF0B438B43C0F8F0
:104B1000003412F0020FD0F8202414BF114322EA0F
:104B20000101C0F820147047C0F81C14704700F54C
:104B30008262D0F81004084310607047002914BF47
:104B4000D0F81804D0F814047047D0F8083412F0E4
:104B5000010F14BF0B438B43C0F80834D0F8043462
:104B600012F0020F14BF0B438B43C0F80434D0F88B
:104B70000C3412F0040F14BF194323EA0101C0F8EA
:104B80000C14D0F8381512F4803F14BF41F0010125
:104B900021F00101C0F8381570472DE9F007012711
:104BA0004FF0000C0326C2F3411800F6C47407FA54
:104BB0000CF50D4210D0D0F8C49F4FEA4C0506FA10
:104BC00005FA29EA0A09C4F80090D4F8009008FA16
:104BD00005F549EA050525600CF1010C0CF0FF0C08
:104BE000BCF1080FE3D3D0F800C512F0010F14BFD9
:104BF0004CEA010C2CEA010CC0F800C5D0F804C541
:104C000012F0020F14BF4CEA010C2CEA010CC0F8A0
:104C100004C5D0F808C512F0040F14BF4CEA010C0B
:104C20002CEA010CC0F808C5D0F818C512F0080F1E
:104C300014BF4CEA010C2CEA010CC0F818C512F0A4
:104C4000100FD0F83C2514BF0A438A43C0F83C2516
:104C5000D0F80C2513F0010F14BF0A438A43C0F8A3
:104C60000C25D0F8102513F0020F14BF0A438A4315
:104C7000C0F81025D0F8142513F0040F14BF0A4310
:104C80008A43C0F81425D0F81C2513F0080F14BF70
:104C90000A438A43C0F81C25D0F8442513F4007F4A
:104CA00014BF0A438A43C0F84425D0F8402513F4C2
:104CB000407F14BF0A438A43C0F84025D0F8282516
:104CC000002B0CBF114322EA0101C0F82815BDE8F2
:104CD000F00770470F4AC0F30741D26E01238B40A3
:104CE0001A420D4A1ABF02EBC1014A6852F831203C
:104CF000C0F3072102F22C53D2F82C254FF00F0CF1
:104D00000CFA01FC00F00F0022EA0C02884010436C
:104D10001860704700E00F407CB5000050F821009B
:104D2000704730B50C4605460022FFF7E9FE2146E4
:104D30002846BDE8304008230122FFF72EBF30B5DA
:104D40000C46054608230122FFF727FF2146284687
:104D5000BDE830400122FFF7D3BE30B50C46054612
:104D60000222FFF7CDFE21462846BDE83040082349
:104D70000122FFF712BF30B50C4605460222FFF7AD
:104D8000BFFE21462846BDE8304008230122FFF738
:104D900004BF40F8212070474268B1F900C0138970
:104DA0005289BCF1000FB8BF4FF0000C03DB9C45EB
:104DB00028BFA3F1010CA0F808C0B1F902C0BCF1F2
:104DC000000FB8BF4FF0000C03DB944528BFA2F1E1
:104DD000010CA0F80AC0B1F904C0BCF1000FB8BFC3
:104DE0004FF0000C03DB9C4528BFA3F1010CA0F899
:104DF0000CC0B1F906100029B8BF002102DB9142B6
:104E000028BF511EC1817047816101F018BB0000AD
:104E10002C22C0E900210022028142810B895B1E05
:104E200083814989491EC18102610F4942618261C2
:104E3000096861B10B68C3614B6803620B898384A5
:104E40008B7A80F82630C97A80F8281009E0074963
:104E5000C161074901628284022180F8261080F82E
:104E6000282080F827207047540B0020754E000042
:104E7000DCB800002DE9F04F89B00446DDE9128965
:104E800080691D46164690F800C00F4603A904AA83
:104E900005AB0DF11C0A1CF0200F08D0CDF800A0C6
:104EA000D0E901A0D0F800C05046E0470AE08DF8F4
:104EB0000CC041788DF8101081788DF81410C078EE
:104EC0008DF81C00B4F90E004045BCBF09B0BDE828
:104ED000F08F9DF81400B4F90A1040448842BCBF1A
:104EE00009B0BDE8F08F002E19BF4FF0040A4FF053
:104EF000010B09B0BDE8F08F310006AA08BF002001
:104F00000DD0206A002804BFCDF818B0387806D03C
:104F100094F827300AEBC303C35838469847002853
:104F20001CBFB4F90C10A942DCBF09B0BDE8F08F7A
:104F300002AAA3690146184600F03EF8010010D10C
:104F400002AA2E21A06900F037F8010009D102AAB7
:104F50002021A06900F030F8010008BF9DF8100082
:104F60000CD09DF80C00434600F00100CDE900098B
:104F70002A46204600F073F89DF80800054406987C
:104F80000744361AB8D109B0BDE8F08F017820295E
:104F90001CBFC078704700B585B0014601A80090DD
:104FA000D1E9010104ABD1F800C003AA02A9E0478E
:104FB0009DF8040005B000BDF0B40378202B2CD080
:104FC00013F0400F4FF000062DD0C788002300F1EA
:104FD000080C002F0ED903EB43045CF824508D42DB
:104FE00005D80CEB840464682C448C4202D85B1C0A
:104FF000BB42F0D39F422FD003EB43030CEB83045F
:105000005CF82330A468C91A204450F8211019B361
:10501000084441781170F0BC70470346D3E901039E
:105020005B68F0BC184713F0800F1DBFD0E9024C3D
:1050300003794079041D02BF2023D0F8C4C07E202C
:10504000994228BF884207D3C81A34F81000604438
:1050500041781170F0BC70473046F0BC70472DE9C4
:10506000FF4F83B08A460446B0F90C100598814280
:10507000BCBF07B0BDE8F08F9AF801100844B4F93E
:1050800008108842BCBF07B0BDE8F08F022600259B
:105090009AF80000A846AB460228DCBF07B0BDE87E
:1050A000F08F0698B4F90E1058448842C4BF07B078
:1050B000BDE8F08F109848B11AF80600002877D0A4
:1050C0004FEA101900F00F07761C33E09AF8001031
:1050D0004FF00009B14214DD1AF8060008F1180279
:1050E0009040B0FA80F00828C8BFC8F10800814499
:1050F0008044B8F1080F04D1761C4FF00008B1428B
:10510000EADC0027B14215DD1AF8060008F11802A2
:105110009040C043B0FA80F00828C8BFC8F108002A
:1051200007448044B8F1080F04D1761C4FF0000802
:10513000B142E9DCB9F1000F48D00698B4F90E107D
:105140005844814242DBB9F1010F76DD9AF8011033
:105150006A1C914271DD05EB09028A42D4BF4946BF
:10516000491B0191B4F90A1088421BDB1199C9B19E
:105170000599B4F908E029447145A8BF8E46019A03
:105180001144B4F90C204B1E9342D8BF1A466369F0
:10519000616800934B6802930346D1F814C07146CE
:1051A0000298E0470198A9EB0009054460E0FFE799
:1051B0000AEB0600407810F0800F19BF4006870DFB
:1051C0004FEAC009002706F10206B3D0002F7ED0B7
:1051D000069800EB0B03B4F90E0098427ADB012F1E
:1051E00052DD9AF80100691C88424DDDE9198142BF
:1051F000D4BFB946A0EB0509B4F90A00834217DB16
:105200000598B4F9081028448842A8BF01464844CC
:10521000B4F90C20A0F1010C9445D8BF6246D4F833
:1052200004C020690090DCF80400DCF814C0E047FA
:10523000A7EB09074D4441E0FFE70599B4F90820C1
:1052400029449142A1BFB4F90C208A42B4F90A2042
:1052500090420ADB119A42B1D4F804C00246636955
:10526000DCF80400DCF80CC0E047A9F101096D1C72
:105270009AF80100A84204BF0BF1010B0025B9F117
:10528000000F7FF45AAFA1E705984119B4F908005F
:105290008142A1BFB4F90C008842B4F90A008342EC
:1052A0000ADBD4F804C0D4F810901A46DCF80400E5
:1052B000DCF80CC04B46E0477F1E6D1C9AF80100DD
:1052C000A84204BF0BF1010B0025002F00E001E014
:1052D0007FF47EAF9AF80000B0423FF7E2AE07B02D
:1052E000BDE8F08F017820291CBF8078704700B599
:1052F00085B0014604A80090D1E9010101ABD1F8C5
:1053000000C003AA02A9E0479DF8040005B000BD53
:1053100000B583B04FF0000CCDF800C0CDF804C04C
:1053200000F08CF903B000BD38B5B0F90AC09C4557
:10533000DABFB0F90EC0634538BD8A4202DA8C4646
:1053400011466246B0F90C408C42A6BFB0F908C0C5
:10535000624538BD6145B8BF61469442B8BF224638
:10536000D0F804C000690090DCF80400DCF814C038
:10537000E04738BD38B5B0F908C08C45DABFB0F9A0
:105380000CC0614538BD934202DA94461A46634622
:10539000B0F90E409442A6BFB0F90AC0634538BDCB
:1053A0006245B8BF62469C42B8BF2346D0F804C0ED
:1053B00000690090DCF80400DCF818C0E04738BD54
:1053C000012111600078704770B50C46B1F90230C8
:1053D000B1F904200546B1F90010FFF7A5FFB4F9B3
:1053E0000210B4F90630994208BF70BD4A1CB4F9E6
:1053F00004102846FFF7BEFFB4F90020B4F90410EA
:105400008A4208BF70BDB4F90630491E2846FFF72E
:105410008BFFB4F90220B4F90610501C884208BF73
:1054200070BD03464A1EB4F900102846BDE870401E
:10543000FFF7A0BF70B5B1F90030B1F9042082B018
:105440009342C7BFADF800200A88ADF800308A88C3
:10545000ADF80420B1F90230B1F906209342C7BF7C
:10546000ADF802204988ADF80230C988ADF80610C1
:10547000BDF90050B0F90C209542C4BF02B070BD18
:10548000BDF90430B0F908109942C4BF02B070BD34
:10549000BDF902C0B0F90E40A445C4BF02B070BD52
:1054A000BDF90640B0F90A60A642C4BF02B070BDA3
:1054B0008D42B8BFADF800109342C8BFADF80420CC
:1054C000B0F90A108C45B8BFADF80210B0F90E1053
:1054D0008C42C8BFADF8061002694168CB694868C4
:1054E0006946984702B070BD10B582B0DDE9044C42
:1054F000BCF1000F18BF4FF0010CCDE9004CD0F803
:105500001CC0E04702B010BD2DE9F04F87B0150078
:105510000E4604464FF000071CBF4FF004084FF042
:1055200001094DD0290002AA08BF00200DD0206A31
:10553000002804BFCDF80890307806D094F82730C2
:1055400008EBC303C35830469847002838D0A369F6
:10555000014601AA1846FFF72FFD50BB01AA2E21D4
:10556000A069FFF729FD20BB01AA2021A069FFF750
:1055700023FDF0B9A06905A901AA90F800C003AB0A
:105580000DF1100A1CF0200F08D0CDF800A0D0E9D2
:1055900001A0D0F800C05046E0470AE08DF814C0E2
:1055A00041788DF8041081788DF80C10C0788DF852
:1055B00010009DF804000744029806442D1AB1D14A
:1055C00007B03846BDE8F08F1649042804BF0868C4
:1055D00040F4803018D0052804BF086840F400303B
:1055E00012D0062812D00F2815D0102838BF7047C7
:1055F000103800F01F01012202FA01F142090A48A5
:1056000050F822000160704708607047086840F455
:105610008020086070474FF0E020016941F00201EE
:105620000161704724ED00E0C8B6000010B5FAF73C
:105630007AFE002818BF012010BD00002DE9FF4FA1
:1056400011F8014B91B031F8020B0A90119831F822
:1056500002BB0F46B0F90C10139899468142BCBFAB
:1056600015B0BDE8F08F0A9A1044A0F1010C119812
:10567000B0F908209445A7BFB0F90E00484515B011
:10568000BDE8F08F09EB0B03119D5B1EB5F90A50C5
:10569000AB42BCBF15B0BDE8F08F4FF08048139D02
:1056A0009542B4BFA2EB050A4FF0000A8C45CEBF6D
:1056B000491B0A99491E0D918342C4BFA0EB090002
:1056C00000F1010B04F07F00012822D0781C0B9020
:1056D000387800EB40003844071D14F0800F21D0CB
:1056E0000020B64904F07F0602460A50001D20281B
:1056F000FBD30A987043C01DC21700EB5270C01054
:1057000000FB0BF0059000200C900446099000F07F
:105710004BB9119840690E90119800690F900EA82E
:105720000B90DAE71198B0F90A0048450DDD0A99A7
:10573000A0EB09006143C91DCA1701EB5271C910E2
:1057400001FB0077ABEB000B8144012C08BF0AF092
:10575000070037D0042C1ABF002005900AF0010082
:1057600030D0ABF101000690BBF1000F04BF15B0C3
:10577000BDE8F08F0AFB04F0C11700EB517B0D98D8
:105780005544A0EB0A00461C0A986043C01DC1178F
:1057900000EB517A1F98B8B11E980B990096CDE98D
:1057A000031007EBEB0244EA0803CDE901324A4655
:1057B0002946059B119800F047F9002818BF4FF0C3
:1057C000000815E00590CCE7119807EBEB0244EADE
:1057D000080341680B98CDE90063CDE90220D1F8B8
:1057E00010C048684A462946059BE0474FF000082C
:1057F000069807EBEA07401E069009F10109401CD4
:10580000C8D115B0BDE8F08F0C9921B917F8011B6C
:10581000099108210C914A1E01219140099A089191
:1058200011420BD017F8011BCA0801F00701891CAF
:10583000CDE90612059A511A0591A9E05F4917F8BA
:10584000012B0A540599401C491E0591002107911E
:105850000691DDE90812114309915849069A09E0B9
:10586000079A024402F01F028A5C0A54069A401CFE
:10587000521E069212B1202805D0F1E720281CBF45
:10588000059A002A75D100257DE0C5F12000C000F1
:10589000B0FBF6F01199B1F90A10494550DC211816
:1058A00051454DD30D998C424ADC544508DAAAEB98
:1058B00004017143CA1701EB527105EBE10554462F
:1058C0000D99091B4A1C824238BF1046012E08BFA1
:1058D00004F0070304D0042E14BF002304F00103D6
:1058E0001F99B9B1DFF8D4C046EA080E0B9A1E9989
:1058F000CDE9000EAC44CDF808C0CDE903211398E2
:105900004A460119119800F09FF8002818BF4FF07F
:10591000000815E01199294A46EA080CD1F804E07C
:105920000B992A44CDE9000CCDE902211398DEF849
:1059300010C001194A46DEF80400E0474FF00008A5
:1059400004FB06F020F0070090FBF6F10A98C5F181
:105950002002401A7043C01DC31700EB5370B2EB16
:10596000E00F07D2C5F12000C000B0FBF6F04418EC
:105970000DE00DE005EBE005002409F10109ABF1B4
:10598000010B202D03D2BBF1000F7FF47EAF00206E
:10599000069900297FF45DAFDDE9081211423FF45A
:1059A00058AF0C99491E0C91BBF1000F1CBF059913
:1059B00000297FF429AF15B0BDE8F08F24660020E0
:1059C00000F6C872D0F8C80F20F0070020F48070ED
:1059D000084310607047084401686FF35201114397
:1059E000016012F0020F14BFB0218C21016214BFBC
:1059F0004FF4306140F60C0141627047425842F06A
:105A00000102425070470844016811F0020F14BFB0
:105A10005108511E01617047002A826814BF11436A
:105A200022EA01018160704721F03F0318440368B6
:105A300013F0020F18BF520803699A1A11F0010FF0
:105A400014BFC261826170472DE9FF4F87B089465C
:105A5000DDE91586002008F0FF01DDF850B01C4696
:105A6000012918D0189A042902F0FF0A7DD00829CC
:105A70001CBF0BB0BDE8F08F3278524514BF002236
:105A800001220027012582F00101BBF1010F00F383
:105A9000E58000F006B90BEB0401C91DCA1701EB44
:105AA00052714FEAE10A1899002918BFFF21002519
:105AB0000191BAF1000FDCBF0BB0BDE8F08F0027F9
:105AC000554513DA725D0199514004F11802914075
:105AD000B1FA81F10829C8BFC4F108010F440C4490
